:100000000C9444000C946C000C946C000C946C00E8
:100010000C946C000C946C000C946C000C946C00B0
:100020000C946C000C946C000C946C000C946C00A0
:100030000C946C000C946C000C946C000C946C0090
:100040000C94BB010C946C000C94BA020C94080341
:100050000C946C000C946C000C946C000C946C0070
:100060000C946C000C946C0005A84CCDB2D44EB925
:100070003836A9020C50B9918688083CA6AAAA2A4B
:10008000BE000000803F740411241FBECFEFD8E0F3
:10009000DEBFCDBF12E0A0E0B1E0E0EDF3E102C0D1
:1000A00005900D92A030B107D9F712E0A0E0B2E0C0
:1000B00001C01D92A73BB107E1F710E0C8E8D0E00E
:1000C00004C02297FE010E94E209C638D107C9F791
:1000D0000E94CA040C94E6090C9400002F923F92EF
:1000E0004F925F926F927F928F929F92AF92BF9248
:1000F000CF92DF92EF92FF920F931F93DF93CF93F4
:10010000CDB7DEB728970FB6F894DEBF0FBECDBFD0
:1001100080E00E9497027C01A090EB01B090EC017E
:10012000C090ED01D090EE01C601B5010E944F09CB
:100130006D837E838F8398876090E7017090E801DC
:100140008090E9019090EA01C401B3010E944F0937
:1001500069837A838B839C830027F7FC0095102F9B
:10016000C801B7010E94F60720E030EC4FE754E4E5
:100170000E945B071B012C01E0900002F09001023D
:100180000091020210910302C801B7010E945807B2
:1001900020E030E040E85FE30E94F00620E030E03D
:1001A00040EA50E40E945B079B01AC01C601B50127
:1001B0000E94F0066093EB017093EC018093ED01D7
:1001C0009093EE01C401B3012AE037ED43E25CE312
:1001D0000E94F0066093E7017093E8018093E901C3
:1001E0009093EA01C801B7012AE037ED43EA5BE3E7
:1001F0000E94F00660930002709301028093020255
:100200009093030205E912E0C80160E071E00E94EA
:10021000F205C201B10120E030E040EA50E40E9462
:10022000EC08AB01BC01C80122E030E00E94D90615
:1002300082E0E82E81E0F82EC801B7010E94F205A5
:100240006D817E818F81988520E030E040E85FE31A
:100250000E94F00620E030E040E250E40E94EC080A
:10026000AB01BC01C80122E030E00E94D906C80100
:10027000B7010E94F20569817A818B819C8120E01F
:1002800030E040E05FE30E94EC0820E030E040E234
:1002900050E40E94F006AB01BC01C80122E030E04E
:1002A0000E94DC0669E170E080E090E00E940302B9
:1002B00028960FB6F894DEBF0FBECDBFCF91DF9169
:1002C0001F910F91FF90EF90DF90CF90BF90AF9074
:1002D0009F908F907F906F905F904F903F902F9066
:1002E0000895EF92FF920F931F9305E912E0C80162
:1002F00040E052EC61E070E00E94430394E0E92E9C
:1003000091E0F92EC801B7010E94F205C801B701BA
:100310000E94F205C801B7010E94F205C80167E01A
:1003200071E00E94F205C80162E171E00E94F205ED
:10033000C80160E271E00E94F205C8016EE271E05E
:100340000E94F205C80166E371E00E94F205C8014F
:100350006EE371E00E94F205C80165E671E00E945B
:10036000F205C8016DEA71E00E94F2051F910F913C
:10037000FF90EF9008951F920F920FB60F921124E5
:100380002F933F938F939F93AF93BF9380910802D6
:1003900090910902A0910A02B0910B0230910C02D7
:1003A0000196A11DB11D232F2D5F2D3720F02D5754
:1003B0000196A11DB11D20930C0280930802909319
:1003C0000902A0930A02B0930B028091040290915B
:1003D0000502A0910602B09107020196A11DB11D70
:1003E0008093040290930502A0930602B093070243
:1003F000BF91AF919F918F913F912F910F900FBE21
:100400000F901F9018959B01AC017FB7F8948091D5
:10041000040290910502A0910602B091070266B510
:10042000A89B05C06F3F19F00196A11DB11D7FBFAC
:10043000BA2FA92F982F8827860F911DA11DB11DB6
:1004400062E0880F991FAA1FBB1F6A95D1F7BC01F4
:100450002DC0FFB7F8948091040290910502A091FD
:100460000602B0910702E6B5A89B05C0EF3F19F060
:100470000196A11DB11DFFBFBA2FA92F982F882764
:100480008E0F911DA11DB11DE2E0880F991FAA1FBB
:10049000BB1FEA95D1F7861B970B885E9340C8F285
:1004A000215030404040504068517C4F211531056B
:1004B0004105510571F60895789484B5826084BD34
:1004C00084B5816084BD85B5826085BD85B5816058
:1004D00085BDEEE6F0E0808181608083E1E8F0E0B8
:1004E0001082808182608083808181608083E0E8E7
:1004F000F0E0808181608083E1EBF0E080818460C6
:100500008083E0EBF0E0808181608083EAE7F0E0C7
:10051000808184608083808182608083808181602B
:1005200080838081806880831092C1000895982F15
:100530008E3008F09E5097708091EF018295880F61
:10054000880F807C892B80937C0080917A00806466
:1005500080937A0080917A0086FDFCCF209178000C
:1005600040917900942F80E030E0282B392BC9018D
:10057000089508951F920F920FB60F9211242F9392
:100580003F934F938F939F93EF93FF938091C0007E
:1005900082FD1DC04091C60020914D0230914E0257
:1005A0002F5F3F4F2F73307080914F029091500218
:1005B0002817390771F0E0914D02F0914E02E35F88
:1005C000FD4F408330934E0220934D0202C0809134
:1005D000C600FF91EF919F918F914F913F912F9185
:1005E0000F900FBE0F901F901895E091A102F0910F
:1005F000A202E05CFF4F8191919120813181821BA9
:10060000930B8F739070892B11F00E94B90208959B
:100610001F920F920FB60F9211242F933F938F9337
:100620009F93EF93FF9320919102309192028091DA
:100630009302909194022817390731F48091C100F8
:100640008F7D8093C10014C0E0919302F0919402D9
:10065000EF5AFD4F20818091930290919402019670
:100660008F73907090939402809393022093C600AE
:10067000FF91EF919F918F913F912F910F900FBE1E
:100680000F901F901895AF92BF92DF92EF92FF925A
:100690000F931F93CF93DF93EC017A018B01DD243D
:1006A000403081EE580780E0680780E0780711F05D
:1006B000DD24D39491E0A92EB12CEC89FD89DD20B5
:1006C00069F0C50108A002C0880F991F0A94E2F7DB
:1006D000808360E079E08DE390E005C0108260E8FF
:1006E00074E88EE190E0A80197010E94BE092150B4
:1006F000304040405040569547953795279580E1CA
:100700002030380720F0DD2011F0DD24D6CFE88935
:10071000F9893083EA89FB89208319A2EE89FF8950
:10072000408121E030E0C9010C8C02C0880F991F84
:100730000A94E2F7482B4083EE89FF894081C90182
:100740000D8C02C0880F991F0A94E2F7482B408352
:10075000EE89FF894081C9010E8C02C0880F991F64
:100760000A94E2F7482B4083EE89FF8980810F8C41
:1007700002C0220F331F0A94E2F72095282320831A
:10078000DF91CF911F910F91FF90EF90DF90BF907D
:10079000AF900895DC011C96ED91FC911D97E05CF3
:1007A000FF4F2191319180819181281B390B2F734B
:1007B0003070C9010895DC011C96ED91FC911D97E4
:1007C000E05CFF4F20813181E054F040DF01AE5BFF
:1007D000BF4F8D919C9111972817390719F42FEF6E
:1007E0003FEF07C08D919C91E80FF91F8081282F62
:1007F00030E0C9010895DC011C96ED91FC911D9734
:10080000E05CFF4F20813181E054F040DF01AE5BBE
:10081000BF4F8D919C9111972817390719F42FEF2D
:100820003FEF10C08D919C911197E80FF91F208127
:100830008D919C91119701968F73907011969C9356
:100840008E9330E0C9010895DC0191968C919197C7
:10085000882339F05496ED91FC915597808186FF5D
:10086000F9CF91961C920895CF93DF93EC01EE851A
:10087000FF85E05CFF4F20813181E054F0402F5F25
:100880003F4F2F733070DF01AE5BBF4F8D919C9156
:10089000119728173907D1F3E05CFF4F80819181D0
:1008A000E054F040E80FF91F6083EE85FF85E05CBF
:1008B000FF4F31832083EE89FF89208181E090E022
:1008C0000F8C02C0880F991F0A94E2F7282B20830F
:1008D00081E089A3EC89FD8980818064808381E047
:1008E00090E0DF91CF9108951092980210929702B4
:1008F00088EE93E0A0E0B0E08093990290939A0292
:10090000A0939B02B0939C0284EF91E09093960297
:10091000809395028DE092E09093A2028093A102D1
:1009200081E592E09093A4028093A30285EC90E08D
:100930009093A6028093A50284EC90E09093A80285
:100940008093A70280EC90E09093AA028093A90282
:1009500081EC90E09093AC028093AB0282EC90E04B
:100960009093AE028093AD0286EC90E09093B0023B
:100970008093AF0284E08093B10283E08093B2025F
:1009800087E08093B30285E08093B40281E0809396
:10099000B5020895CF93DF930E945C020E9471011B
:1009A000C5EFD2E00E946E002097E1F30E94F502AD
:1009B000F9CFCF92DF92EF92FF920F931F93CF93D5
:1009C000DF937C016B018A01C0E0D0E00FC0D6014B
:1009D0006D916D01D701ED91FC910190F081E02DB9
:1009E000C7010995C80FD91F015010400115110505
:1009F00071F7CE01DF91CF911F910F91FF90EF9092
:100A0000DF90CF900895EF92FF920F931F938C0188
:100A1000DC01ED91FC910190F081E02D6DE00995F4
:100A20007C01D801ED91FC910190F081E02DC8018D
:100A30006AE009959C012E0D3F1DC9011F910F9180
:100A4000FF90EF900895CF93DF93EC01611571054E
:100A500019F420E030E00FC0DB010D900020E9F731
:100A60001197A61BB70BE881F9810280F381E02D75
:100A7000AD0109959C01C901DF91CF9108954F9275
:100A80005F927F928F929F92AF92BF92CF92DF92AE
:100A9000EF92FF920F931F93DF93CF93CDB7DEB703
:100AA000A1970FB6F894DEBF0FBECDBF2C01742EF8
:100AB000CB01223008F42AE019A231E2C32ED12C56
:100AC000CC0EDD1E822E9924AA24BB24672D752FFF
:100AD000A50194010E94BE0979018A01C801B701EC
:100AE000A50194010E949F09472D461B0894C10847
:100AF000D1084A3014F4405D01C0495CF6014083DE
:100B0000E114F1040105110521F07E2C5F2DC801CF
:100B1000DDCFC201B6010E942305A1960FB6F8945D
:100B2000DEBF0FBECDBFCF91DF911F910F91FF9020
:100B3000EF90DF90CF90BF90AF909F908F907F907D
:100B40005F904F900895DC012115310541F4ED913E
:100B5000FC910190F081E02D642F099508950E9489
:100B60003F050895CF92DF92EF92FF920F931F936C
:100B7000CF93DF93EC016A017B012115310541F42C
:100B8000E881F9810190F081E02D642F09951FC063
:100B90002A303105D1F477FF17C0E881F98101903F
:100BA000F081E02D6DE209958C0144275527BA01AB
:100BB0004C195D096E097F09CE012AE00E943F05AC
:100BC0009801280F391F04C02AE00E943F059C01AC
:100BD000C901DF91CF911F910F91FF90EF90DF90AE
:100BE000CF9008950E94230508957F928F929F923F
:100BF000AF92BF92CF92DF92EF92FF920F931F932B
:100C0000CF93DF934C017A018B01722ECB01BA0195
:100C1000A80197010E945509882321F0C40169EDBC
:100C200071E021C0C0E0D0E057016801E894D7F836
:100C3000C601B5012FEF3FEF4FE75FE70E9455096F
:100C4000882351F4C601B5012FEF3FEF4FE75FE76F
:100C50000E945407181614F0C1E0D0E0219739F033
:100C6000C4016DED71E00E942305EC0193C0C80141
:100C7000B7012FEF3FEF4FE75FE40E94E808181637
:100C800054F0C801B7012FEF3FEF4FE75FEC0E9430
:100C90005407882324F4C40161EE71E0E4CFC80155
:100CA000B70120E030E040E050E00E94540787FDAB
:100CB00003C0C0E0D0E00EC0D401ED91FC910190E2
:100CC000F081E02DC4016DE20995EC0117FB109550
:100CD00017F9109520E030E040E05FE3DD240BC021
:100CE000CA01B90120E030E040E251E40E945B0714
:100CF0009B01AC01D394D71498F3C801B7010E94AB
:100D0000F0065B016C010E94C8077B018C01C401E5
:100D1000B801A7012AE030E00E94A305C80FD91F3F
:100D2000772039F0C40165EE71E00E942305C80FF9
:100D3000D91FC801B7010E94F4079B01AC01C6018D
:100D4000B5010E94EF0624C020E030E040E251E40B
:100D50000E94EC087B018C010E94C3075B016C01BF
:100D6000CC24B7FCC094DC2CC401B601A5012AE058
:100D700030E00E94B205C80FD91FC601B5010E941C
:100D8000F6079B01AC01C801B7010E94EF067A94F7
:100D90007720D1F6CE01DF91CF911F910F91FF9077
:100DA000EF90DF90CF90BF90AF909F908F907F900B
:100DB00008950E94F5050895EF92FF920F931F93F7
:100DC0007C010E94F5058C01C7010E940305080FF4
:100DD000191FC8011F910F91FF90EF90089550586F
:100DE000BB27AA270ED0A9C169D130F06ED120F05F
:100DF00031F49F3F11F41EF45EC10EF4E095E7FB61
:100E000054C1E92FBCD180F3BA1762077307840776
:100E1000950718F071F49EF5D4C10EF4E0950B2EF1
:100E2000BA2FA02D0B01B90190010C01CA01A0013C
:100E30001124FF27591B99F0593F50F4503E68F197
:100E40001A16F040A22F232F342F4427585FF3CFD8
:100E5000469537952795A795F0405395C9F77EF4A9
:100E60001F16BA0B620B730B840BBAF09150A1F0F2
:100E7000FF0FBB1F661F771F881FC2F70EC0BA0F78
:100E8000621F731F841F48F4879577956795B79500
:100E9000F7959E3F08F0B3CF9395880F08F09927F8
:100EA000EE0F979587950895DCD008F481E00895BA
:100EB00014D1E39553C10CD040C107D140F0FED00E
:100EC00030F021F45F3F19F0F0C051117BC1F3C045
:100ED00056D198F39923C9F35523B1F3951B550BBC
:100EE000BB27AA2762177307840738F09F5F5F4FFD
:100EF000220F331F441FAA1FA9F333D00E2E3AF03E
:100F0000E0E830D091505040E695001CCAF729D057
:100F1000FE2F27D0660F771F881FBB1F26173707A6
:100F20004807AB07B0E809F0BB0B802DBF01FF27D6
:100F300093585F4F2AF09E3F510568F0B6C042C1FA
:100F40005F3FECF3983EDCF3869577956795B79510
:100F5000F7959F5FC9F7880F911D9695879597F92B
:100F60000895E1E0660F771F881FBB1F62177307A4
:100F70008407BA0720F0621B730B840BBA0BEE1FB9
:100F800088F7E095089504D06894B1111BC10895C5
:100F9000FED088F09F5790F0B92F9927B751A0F055
:100FA000D1F0660F771F881F991F1AF0BA95C9F7FD
:100FB00012C0B13081F005D1B1E0089502C1672FB0
:100FC000782F8827B85F39F0B93FCCF386957795AD
:100FD0006795B395D9F73EF4909580957095619596
:100FE0007F4F8F4F9F4F0895E89409C097FB3EF4C1
:100FF00090958095709561957F4F8F4F9F4F992366
:10100000A9F0F92F96E9BB279395F69587957795E3
:101010006795B795F111F8CFFAF4BB0F11F460FFA3
:101020001BC06F5F7F4F8F4F9F4F16C0882311F0FB
:1010300096E911C0772321F09EE8872F762F05C00F
:10104000662371F096E8862F70E060E02AF09A95AA
:10105000660F771F881FDAF7880F9695879597F99F
:101060000895990F0008550FAA0BE0E8FEEF161639
:101070001706E807F907C0F012161306E407F5078C
:1010800098F0621B730B840B950B39F40A2661F000
:10109000232B242B252B21F408950A2609F4A140A3
:1010A000A6958FEF811D811D089597F99F6780E8B0
:1010B00070E060E008959FEF80EC089500240A94AA
:1010C0001616170618060906089500240A94121623
:1010D0001306140605060895EECF59D0E8F3E894F8
:1010E000EFEFBB273FE048EC5FE76B3D73078407FA
:1010F000950708F1FF279F57B25A6A4D7F40894CE8
:10110000F04032F4BE556542704F8643FF4F08945D
:10111000EE1F915030F0BB0F661F771F881FFF1F17
:10112000EBCF9EE7882332F0BB0F661F771F881F27
:101130009A95C1F79395E095BCC0092E0394000CD5
:1011400011F4882352F0BB0F40F4BF2B11F460FF61
:1011500004C06F5F7F4F8F4F9F4F0895EF93E0FF65
:1011600006C0A2EA2AED3FE049EC5FEB4ADEE5DF8C
:101170000F90039401FC9058E8E6F0E0AAC057FDF8
:101180009058440F551F59F05F3F71F04795880FF5
:1011900097FB991F61F09F3F79F08795089512168C
:1011A00013061406551FF2CF4695F1DF08C0161638
:1011B00017061806991FF1CF8695710561050894E9
:1011C0000895E894BB2766277727CB0197F9089500
:1011D00048DF08F48FEF08950BD0AFCF6FDF28F012
:1011E00074DF18F0952309F060CF65CF1124EACFA2
:1011F000C6DFA0F3959FD1F3950F50E0551F629F76
:10120000F001729FBB27F00DB11D639FAA27F00D5F
:10121000B11DAA1F649F6627B00DA11D661F829F86
:101220002227B00DA11D621F739FB00DA11D621F6B
:10123000839FA00D611D221F749F3327A00D611D88
:10124000231F849F600D211D822F762F6A2F11246A
:101250009F5750408AF0E1F088234AF0EE0FFF1FBD
:10126000BB1F661F771F881F91505040A9F79E3FF4
:10127000510570F01ACFA6CF5F3FECF3983EDCF338
:10128000869577956795B795F795E7959F5FC1F731
:10129000FE2B880F911D9695879597F908959F933A
:1012A0001CDF0F9007FCEE5F59CFDBDE880B990B3C
:1012B00008959F3F49F0915028F48695779567955A
:1012C000B7959F5F80389F4F880F9695879597F9C0
:1012D00008959F938F937F936F93FF93EF939B0159
:1012E000AC017ADFEF91FF9105D02F913F914F91A3
:1012F0005F9172CFDF93CF931F930F93FF92EF9283
:10130000DF927B018C01689405C0DA2EEF0170DF5B
:10131000FE01E894A5912591359145915591AEF343
:10132000EF016FDDFE019701A801DA9479F7DF90F4
:10133000EF90FF900F911F91CF91DF910895629FE1
:10134000D001739FF001829FE00DF11D649FE00DBD
:10135000F11D929FF00D839FF00D749FF00D659F1E
:10136000F00D9927729FB00DE11DF91F639FB00D1D
:10137000E11DF91FBD01CF0111240895A1E21A2E2C
:10138000AA1BBB1BFD010DC0AA1FBB1FEE1FFF1F29
:10139000A217B307E407F50720F0A21BB30BE40B79
:1013A000F50B661F771F881F991F1A9469F76095C0
:1013B0007095809590959B01AC01BD01CF0108957A
:1013C000EE0FFF1F0590F491E02D0994F894FFCFE4
:1013D00056003A00520A0053313238303A38303031
:1013E0000A004D31303A31303A36303A32300A0064
:1013F000423235353A3235353A3235350A004630E3
:101400003A303A300A0059303A353A310A004161EF
:101410006E616C6F6752656164283029202F20311E
:101420003032332E30202A20352E303A3235353ABC
:10143000303A300A00412873696E286629202B2033
:101440003129202A20322E35203B2066203D20667F
:10145000202B202828636F732872292B31292F35E0
:101460002E3029203B2072203D2072202B20302E50
:101470003030353A303A3235353A300A0041287347
:10148000696E286A292F322E3029202B20322E35E2
:10149000203B206A203D206A202B20302E30313A1C
:1014A000303A303A3235350A006E616E00696E6648
:1014B000006F7666002E006F12833A6F12833A0136
:1014C000000000003404D904CA03FB03DB03240436
:00000001FF
