:100000000C94C0010C94E8010C94E8010C94E801F4
:100010000C94E8010C94E8010C94E8010C94E801BC
:100020000C94E8010C94E8010C94E8010C94E801AC
:100030000C94E8010C94E8010C94E8010C94E8019C
:100040000C94C5020C94E8010C94C8030C9416049B
:100050000C94E8010C94E8010C94E8010C94E8017C
:100060000C94E8010C94E801A90103025E02BC02B1
:10007000CF02202A2A2054686520616D6F756E7446
:10008000206F66206D6963726F7365636F6E647352
:1000900020746F20666574636820616E64206469F3
:1000A00073706C61792074686520737472696E670F
:1000B000732066726F6D2050524F474D454D20752D
:1000C00073696E67206D7920627974652D62792D70
:1000D00062797465206D6574686F642069733A2075
:1000E00000202A2A2054686520616D6F756E742087
:1000F0006F66206D6963726F7365636F6E647320E2
:10010000746F20666574636820616E64206469732F
:10011000706C61792074686520737472696E67739E
:100120002066726F6D2050524F474D454D207573BC
:10013000696E672074686520737567676573746599
:1001400064207374726370795F50206D6574686F9A
:10015000642069733A2000202A2A2A2A2A20496E1C
:10016000737472756374696F6E7320666F72207535
:1001700073696E672074686520486F6C79204861E8
:100180006E64204772656E616465206F6620416E03
:1001900074696F63682C2073746F72656420696E74
:1001A0002050524F474D454D00466972737420737D
:1001B00068616C742074686F752074616B65206F62
:1001C00075742074686520486F6C792050696E2CB6
:1001D000207468656E207368616C742074686F7534
:1001E00020636F756E7420746F2074687265652C5F
:1001F000206E6F206D6F72652C206E6F206C6573A2
:10020000732E005468726565207368616C6C20629F
:100210006520746865206E756D6265722074686F04
:1002200075207368616C7420636F756E742C206127
:100230006E6420746865206E756D626572206F66ED
:100240002074686520636F756E74696E67207368CB
:10025000616C6C2062652074687265652E00466F63
:100260007572207368616C742074686F75206E6F8E
:100270007420636F756E742C206E65697468657286
:1002800020636F756E742074686F752074776F2C9F
:1002900020657863657074696E6720746861742086
:1002A00074686F75207468656E2070726F63656521
:1002B0006420746F2074687265652E0046697665E7
:1002C000206973207269676874206F75742E004FFF
:1002D0006E636520746865206E756D62657220744A
:1002E000687265652C206265696E67207468652098
:1002F0007468697264206E756D6265722C20626527
:1003000020726561636865642C207468656E206C7A
:100310006F62626573742074686F752074687920E9
:10032000486F6C792048616E64204772656E616425
:1003300065206F6620416E74696F636820746F7703
:10034000617264732074687920666F652C20776809
:100350006F206265696E67206E61756768747920C9
:10036000696E204D792073696768742C2073686109
:100370006C6C20736E7566662069742E00008405AF
:1003800011241FBECFEFD8E0DEBFCDBF11E0A0E04B
:10039000B1E0E4E4FFE002C005900D92A031B107A6
:1003A000D9F711E0A0E1B1E001C01D92A33CB10773
:1003B000E1F713E0C0E8D3E004C02297FE010E94F9
:1003C0009C07CE37D107C9F70E94DA050C94A00725
:1003D0000C940000FB01DC0105900D920020E1F778
:1003E0000895EF92FF920F931F93CF93DF9300E056
:1003F00010E0F801EE0FFF1FE859FF4FC0E0D0E01A
:10040000E590F490F701EC0FFD1F6491662331F045
:1004100081EA91E00E9436062196F4CF81EA91E0CC
:100420000E943E060F5F1F4F0530110511F7DF9147
:10043000CF911F910F91FF90EF900895EF92FF924F
:100440000F931F93DF93CF93CDB7DEB7C85CD04037
:100450000FB6F894DEBF0FBECDBF00E010E07E0106
:100460000894E11CF11CF801EE0FFF1FE859FF4F43
:1004700065917491C7010E94EA0181EA91E0B70198
:100480000E9446070F5F1F4F0530110561F7C853E3
:10049000DF4F0FB6F894DEBF0FBECDBFCF91DF9117
:1004A0001F910F91FF90EF900895AF92BF92CF925E
:1004B000DF92EF92FF920F931F930E940D035B0157
:1004C0006C010E941E020E940D037B018C0181EAD7
:1004D00091E061EE70E00E941306EA18FB080C0937
:1004E0001D0981EA91E0B801A7012AE030E00E94ED
:1004F000320781EA91E00E943E060E940D035B01F3
:100500006C010E94F1010E940D037B018C0181EAC4
:1005100091E062E770E00E941306EA18FB080C09FC
:100520001D0981EA91E0B801A7012AE030E00E94AC
:10053000320781EA91E00E943E06FFCF81EA91E016
:1005400040E052EC61E070E00E94510481EA91E0E9
:100550000E9482058823D1F368EE73E080E090E08A
:100560000E94330381EA91E00E943E0681EA91E015
:100570000E943E0681EA91E067E571E00E945E0616
:1005800081EA91E00E943E0608951F920F920FB6F5
:100590000F9211242F933F938F939F93AF93BF9309
:1005A0008091140190911501A0911601B09117014D
:1005B000309118010196A11DB11D232F2D5F2D37FC
:1005C00020F02D570196A11DB11D20931801809395
:1005D000140190931501A0931601B0931701809117
:1005E000100190911101A0911201B0911301019697
:1005F000A11DB11D8093100190931101A0931201D0
:10060000B0931301BF91AF919F918F913F912F9123
:100610000F900FBE0F901F9018959FB7F8942091E0
:10062000100130911101409112015091130186B5D2
:10063000A89B06C08F3F21F02F5F3F4F4F4F5F4F6A
:100640009FBF542F432F322F2227280F311D411DCA
:10065000511D82E0220F331F441F551F8A95D1F789
:10066000B901CA0108959B01AC017FB7F89480914C
:10067000100190911101A0911201B091130166B582
:10068000A89B05C06F3F19F00196A11DB11D7FBF4A
:10069000BA2FA92F982F8827860F911DA11DB11D54
:1006A00062E0880F991FAA1FBB1F6A95D1F7BC0192
:1006B0002DC0FFB7F8948091100190911101A09185
:1006C0001201B0911301E6B5A89B05C0EF3F19F0E8
:1006D0000196A11DB11DFFBFBA2FA92F982F882702
:1006E0008E0F911DA11DB11DE2E0880F991FAA1F59
:1006F000BB1FEA95D1F7861B970B885E9340C8F223
:10070000215030404040504068517C4F2115310508
:100710004105510571F60895789484B5826084BDD1
:1007200084B5816084BD85B5826085BD85B58160F5
:1007300085BDEEE6F0E0808181608083E1E8F0E055
:100740001082808182608083808181608083E0E884
:10075000F0E0808181608083E1EBF0E08081846063
:100760008083E0EBF0E0808181608083EAE7F0E065
:1007700080818460808380818260808380818160C9
:1007800080838081806880831092C10008950895DD
:100790001F920F920FB60F9211242F933F934F93F6
:1007A0008F939F93EF93FF938091C00082FD1DC0B4
:1007B0004091C6002091590130915A012F5F3F4F5F
:1007C0002F73307080915B0190915C01281739077D
:1007D00071F0E0915901F0915A01E75EFE4F4083BC
:1007E00030935A012093590102C08091C600FF91B5
:1007F000EF919F918F914F913F912F910F900FBE4D
:100800000F901F901895E091AD01F091AE01E05C62
:10081000FF4F8191919120813181821B930B8F73C6
:100820009070892B11F00E94C70308951F920F92B8
:100830000FB60F9211242F933F938F939F93EF93B3
:10084000FF9320919D0130919E0180919F01909195
:10085000A0012817390731F48091C1008F7D809362
:10086000C10014C0E0919F01F091A001E35AFE4F36
:10087000208180919F019091A00101968F739070CB
:100880009093A00180939F012093C600FF91EF9168
:100890009F918F913F912F910F900FBE0F901F90BE
:1008A0001895AF92BF92DF92EF92FF920F931F9332
:1008B000CF93DF93EC017A018B01DD24403081EE90
:1008C000580780E0680780E0780711F0DD24D394B2
:1008D00091E0A92EB12CEC89FD89DD2069F0C501DC
:1008E00008A002C0880F991F0A94E2F7808360E095
:1008F00079E08DE390E005C0108260E874E88EE155
:1009000090E0A80197010E947807215030404040B4
:100910005040569547953795279580E12030380708
:1009200020F0DD2011F0DD24D6CFE889F98930836D
:10093000EA89FB89208319A2EE89FF89408121E0A1
:1009400030E0C9010C8C02C0880F991F0A94E2F7AD
:10095000482B4083EE89FF894081C9010D8C02C07C
:10096000880F991F0A94E2F7482B4083EE89FF898C
:100970004081C9010E8C02C0880F991F0A94E2F7CA
:10098000482B4083EE89FF8980810F8C02C0220FA3
:10099000331F0A94E2F7209528232083DF91CF911B
:1009A0001F910F91FF90EF90DF90BF90AF9008954F
:1009B000DC011C96ED91FC911D97E05CFF4F2191AD
:1009C000319180819181281B390B2F733070C901BF
:1009D0000895DC011C96ED91FC911D97E05CFF4FA2
:1009E00020813181E054F040DF01AE5BBF4F8D913B
:1009F0009C9111972817390719F42FEF3FEF07C083
:100A00008D919C91E80FF91F8081282F30E0C9015A
:100A10000895DC011C96ED91FC911D97E05CFF4F61
:100A200020813181E054F040DF01AE5BBF4F8D91FA
:100A30009C9111972817390719F42FEF3FEF10C039
:100A40008D919C911197E80FF91F20818D919C91B8
:100A5000119701968F73907011969C938E9330E04E
:100A6000C9010895DC0191968C919197882339F002
:100A70005496ED91FC915597808186FFF9CF919620
:100A80001C920895CF93DF93EC01EE85FF85E05C27
:100A9000FF4F20813181E054F0402F5F3F4F2F7393
:100AA0003070DF01AE5BBF4F8D919C91119728177D
:100AB0003907D1F3E05CFF4F80819181E054F04031
:100AC000E80FF91F6083EE85FF85E05CFF4F3183FF
:100AD0002083EE89FF89208181E090E00F8C02C0A5
:100AE000880F991F0A94E2F7282B208381E089A3BD
:100AF000EC89FD8980818064808381E090E0DF91D2
:100B0000CF91089581E008951092A4011092A3015D
:100B100088EE93E0A0E0B0E08093A5019093A60159
:100B2000A093A701B093A80184E091E09093A20163
:100B30008093A10189E191E09093AE018093AD0192
:100B40008DE591E09093B0018093AF0185EC90E04A
:100B50009093B2018093B10184EC90E09093B40142
:100B60008093B30180EC90E09093B6018093B5013F
:100B700081EC90E09093B8018093B70182EC90E013
:100B80009093BA018093B90186EC90E09093BC01F8
:100B90008093BB0184E08093BD0183E08093BE011C
:100BA00087E08093BF0185E08093C00181E080935E
:100BB000C1010895CF93DF930E948C030E949E028F
:100BC000C3E0D4E00E9455022097E1F30E940304A1
:100BD000F9CFCF92DF92EF92FF920F931F93CF93B3
:100BE000DF937C016B018A01C0E0D0E00FC0D60129
:100BF0006D916D01D701ED91FC910190F081E02D97
:100C0000C7010995C80FD91F0150104001151105E2
:100C100071F7CE01DF91CF911F910F91FF90EF906F
:100C2000DF90CF900895EF92FF920F931F93CF9391
:100C3000DF937C018B01C0E0D0E0F8010F5F1F4F14
:100C40006491662359F0D701ED91FC910190F081F8
:100C5000E02DC7010995C80FD91FEFCFCE01DF9155
:100C6000CF911F910F91FF90EF900895DC01ED91CE
:100C7000FC910190F081E02D09950895EF92FF928B
:100C80000F931F938C01DC01ED91FC910190F08199
:100C9000E02D6DE009957C01D801ED91FC9101906A
:100CA000F081E02DC8016AE009959C012E0D3F1DE1
:100CB000C9011F910F91FF90EF900895EF92FF925D
:100CC0000F931F937C010E9413068C01C7010E94A1
:100CD0003E069C01200F311FC9011F910F91FF900B
:100CE000EF900895CF93DF93EC016115710519F42E
:100CF00020E030E00FC0DB010D900020E9F71197F4
:100D0000A61BB70BE881F9810280F381E02DAD01CC
:100D100009959C01C901DF91CF9108954F925F928F
:100D20007F928F929F92AF92BF92CF92DF92EF927B
:100D3000FF920F931F93DF93CF93CDB7DEB7A197A9
:100D40000FB6F894DEBF0FBECDBF2C01742ECB01C1
:100D5000223008F42AE019A231E2C32ED12CCC0EA5
:100D6000DD1E822E9924AA24BB24672D752FA50190
:100D700094010E94780779018A01C801B701A50191
:100D800094010E945907472D461B0894C108D108B9
:100D90004A3014F4405D01C0495CF6014083E1141F
:100DA000F1040105110521F07E2C5F2DC801DDCF76
:100DB000C201B6010E947206A1960FB6F894DEBF7A
:100DC0000FBECDBFCF91DF911F910F91FF90EF909C
:100DD000DF90CF90BF90AF909F908F907F905F906B
:100DE0004F900895CF92DF92EF92FF920F931F934F
:100DF000CF93DF93EC016A017B012115310541F4AA
:100E0000E881F9810190F081E02D642F09951FC0E0
:100E10002A303105D1F477FF17C0E881F9810190BC
:100E2000F081E02D6DE209958C0144275527BA0128
:100E30004C195D096E097F09CE012AE00E948E06D9
:100E40009801280F391F04C02AE00E948E069C01D9
:100E5000C901DF91CF911F910F91FF90EF90DF902B
:100E6000CF900895EF92FF920F931F937C010E9401
:100E7000F2068C01C7010E943E069C01200F311F23
:100E8000C9011F910F91FF90EF900895EF92FF928B
:100E90000F931F937C010E9472068C01C7010E9470
:100EA0003E06080F191FC8011F910F91FF90EF9088
:100EB0000895629FD001739FF001829FE00DF11DA4
:100EC000649FE00DF11D929FF00D839FF00D749FC4
:100ED000F00D659FF00D9927729FB00DE11DF91F70
:100EE000639FB00DE11DF91FBD01CF0111240895CD
:100EF000A1E21A2EAA1BBB1BFD010DC0AA1FBB1F1E
:100F0000EE1FFF1FA217B307E407F50720F0A21B8F
:100F1000B30BE40BF50B661F771F881F991F1A94FC
:100F200069F760957095809590959B01AC01BD0126
:100F3000CF010895EE0FFF1F0590F491E02D099465
:040F4000F894FFCF53
:100F4400000000004205E905D8040905E90432055A
:00000001FF
